{
  "contractName": "RetrieveTokenBalances",
  "abi": [
    {
      "inputs": [
        {
          "internalType": "address",
          "name": "wallet",
          "type": "address"
        },
        {
          "internalType": "address[]",
          "name": "tokens",
          "type": "address[]"
        }
      ],
      "name": "getBalances",
      "outputs": [
        {
          "components": [
            {
              "internalType": "address",
              "name": "token",
              "type": "address"
            },
            {
              "internalType": "uint256",
              "name": "balance",
              "type": "uint256"
            }
          ],
          "internalType": "struct RetrieveTokenBalances.TokenBalance[]",
          "name": "",
          "type": "tuple[]"
        }
      ],
      "stateMutability": "view",
      "type": "function",
      "constant": true
    }
  ],
  "bytecode": "0x608060405234801561001057600080fd5b506106b6806100206000396000f3fe608060405234801561001057600080fd5b506004361061002b5760003560e01c80636a385ae914610030575b600080fd5b61004a600480360381019061004591906103d3565b610060565b6040516100579190610535565b60405180910390f35b606060008251905060008167ffffffffffffffff81111561008457610083610290565b5b6040519080825280602002602001820160405280156100bd57816020015b6100aa6101d8565b8152602001906001900390816100a25790505b50905060005b828110156101cc5760008582815181106100e0576100df610557565b5b60200260200101519050600081905060008173ffffffffffffffffffffffffffffffffffffffff166370a082318a6040518263ffffffff1660e01b815260040161012a9190610595565b602060405180830381865afa158015610147573d6000803e3d6000fd5b505050506040513d601f19601f8201168201806040525081019061016b91906105dc565b905060405180604001604052808473ffffffffffffffffffffffffffffffffffffffff168152602001828152508585815181106101ab576101aa610557565b5b602002602001018190525050505080806101c490610638565b9150506100c3565b50809250505092915050565b6040518060400160405280600073ffffffffffffffffffffffffffffffffffffffff168152602001600081525090565b6000604051905090565b600080fd5b600080fd5b600073ffffffffffffffffffffffffffffffffffffffff82169050919050565b60006102478261021c565b9050919050565b6102578161023c565b811461026257600080fd5b50565b6000813590506102748161024e565b92915050565b600080fd5b6000601f19601f8301169050919050565b7f4e487b7100000000000000000000000000000000000000000000000000000000600052604160045260246000fd5b6102c88261027f565b810181811067ffffffffffffffff821117156102e7576102e6610290565b5b80604052505050565b60006102fa610208565b905061030682826102bf565b919050565b600067ffffffffffffffff82111561032657610325610290565b5b602082029050602081019050919050565b600080fd5b600061034f61034a8461030b565b6102f0565b9050808382526020820190506020840283018581111561037257610371610337565b5b835b8181101561039b57806103878882610265565b845260208401935050602081019050610374565b5050509392505050565b600082601f8301126103ba576103b961027a565b5b81356103ca84826020860161033c565b91505092915050565b600080604083850312156103ea576103e9610212565b5b60006103f885828601610265565b925050602083013567ffffffffffffffff81111561041957610418610217565b5b610425858286016103a5565b9150509250929050565b600081519050919050565b600082825260208201905092915050565b6000819050602082019050919050565b6104648161023c565b82525050565b6000819050919050565b61047d8161046a565b82525050565b604082016000820151610499600085018261045b565b5060208201516104ac6020850182610474565b50505050565b60006104be8383610483565b60408301905092915050565b6000602082019050919050565b60006104e28261042f565b6104ec818561043a565b93506104f78361044b565b8060005b8381101561052857815161050f88826104b2565b975061051a836104ca565b9250506001810190506104fb565b5085935050505092915050565b6000602082019050818103600083015261054f81846104d7565b905092915050565b7f4e487b7100000000000000000000000000000000000000000000000000000000600052603260045260246000fd5b61058f8161023c565b82525050565b60006020820190506105aa6000830184610586565b92915050565b6105b98161046a565b81146105c457600080fd5b50565b6000815190506105d6816105b0565b92915050565b6000602082840312156105f2576105f1610212565b5b6000610600848285016105c7565b91505092915050565b7f4e487b7100000000000000000000000000000000000000000000000000000000600052601160045260246000fd5b60006106438261046a565b91507fffffffffffffffffffffffffffffffffffffffffffffffffffffffffffffffff820361067557610674610609565b5b60018201905091905056fea26469706673582212207634235cbe668e1580b787608dd8eadc65fd1f00e9d47fddb16252a2d456a12464736f6c63430008120033",
  "immutableReferences": {},
  "source": "// SPDX-License-Identifier: MIT\npragma solidity >=0.4.22 <0.9.0;\n\ninterface IERC20 {\n  function balanceOf(address wallet) external view returns (uint256);\n}\n\ncontract RetrieveTokenBalances {\n  struct TokenBalance {\n    address token;\n    uint256 balance;\n  }\n\n  function getBalances(address wallet, address[] memory tokens) public view returns(TokenBalance[] memory) {\n    uint len = tokens.length;\n    TokenBalance[] memory tokenBalances = new TokenBalance[](len);\n\n    for (uint i = 0; i < len; i++) {\n      address token = tokens[i];\n      IERC20 erc20 = IERC20(token);\n      uint256 balance = erc20.balanceOf(wallet);\n      tokenBalances[i] = TokenBalance(token, balance);\n    }\n    return tokenBalances;\n  }\n}\n",
  "sourcePath": "D:\\repository\\code-challenge\\src\\problem5\\contracts\\RetrieveTokenBalances.sol",
  "compiler": {
    "name": "solc",
    "version": "0.8.18+commit.87f61d96.Emscripten.clang"
  },
  "schemaVersion": "3.4.12",
  "updatedAt": "2023-02-20T04:24:55.959Z",
  "networkType": "ethereum",
  "devdoc": {
    "kind": "dev",
    "methods": {},
    "version": 1
  },
  "userdoc": {
    "kind": "user",
    "methods": {},
    "version": 1
  }
}